:1000000000000120750300005D0300005F03000095
:1000100061030000630300006503000000000000AE
:100020000000000000000000000000006703000066
:1000300069030000000000006B0300006D03000076
:100040006F0300006F0300004D1600006F030000F7
:100050006F0300006F0300006F030000C116000073
:100060002D1A00006F0300006F0300006F030000F3
:100070006F0300006F0300006F0300006F030000B8
:100080006F0300006F0300006F0300006F030000A8
:100090006F0300006F0300006F0300006F03000098
:1000A0006F0300006F0300006F0300006F03000088
:1000B0006F0300006F03000000000000000000005C
:1000C0006F0300006F0300006F0300006F03000068
:1000D0006F0300006F0300006F03000000000000CA
:1000E0000000000000000000000000000000000010
:1000F0000000000000000000000000000000000000
:1001000000000000000000000000000000000000EF
:1001100000000000000000000000000000000000DF
:1001200000000000000000000000000000000000CF
:1001300000000000000000000000000000000000BF
:1001400000000000000000000000000000000000AF
:10015000000000000000000000000000000000009F
:10016000000000000000000000000000000000008F
:10017000000000000000000000000000000000007F
:10018000000000000000000000000000000000006F
:10019000000000000000000000000000000000005F
:1001A000000000000000000000000000000000004F
:1001B000000000000000000000000000000000003F
:1001C000000000000000000000000000000000002F
:1001D000000000000000000000000000000000001F
:1001E000000000000000000000000000000000000F
:1001F00000000000000000000000000000000000FF
:10020000354936480A1A02D0072291438D463449AF
:1002100034480A1A06D00722914381F30988022242
:1002200082F3148830483149314A00F044F83148AB
:100230003149324A00F03FF831483249324A00F041
:100240003AF832483249334A00F035F832483349F7
:10025000334A00F030F833483349344A00F02BF881
:1002600033483449344A00F026F8344834490022EF
:1002700000F02CF833483449002200F027F83348C6
:100280003349091A082902DB002202604160314A21
:1002900090471F481F49884205D00268043003B4C4
:1002A000904703BCF7E700208646EC46002000217B
:1002B000294A9047FEE7884207D0521A05D00378B2
:1002C00001300B700131013AF9D17047884202D0F8
:1002D00002700130FAE770470000012000E00020C2
:1002E00000000120000001208834000000000020F0
:1002F0003C000020D0030000D0030000A82A00002A
:100300008834000000000020000000201C2B0000AA
:100310001C2B00001C2B00001C2B00001C2B0000C1
:100320001C2B00001C2B00001C2B0000863400003E
:10033000C43400003C0000203C0000203C000020B1
:1003400094090020940900209409002094090020B9
:10035000942900209D03000051240000FEE7FEE7E1
:10036000FEE7FEE7FEE7FEE7FEE7FEE7FEE7FEE765
:1003700000F002B8FFF7FCBF0F484FF007018843B9
:1003800085460E4880470E48016841F470010160BF
:10039000BFF34F8FBFF36F8FFFF732BF09480A4992
:1003A0000A4A884207D0521A05D0037801300B70F0
:1003B0000131013AF9D1704700000120792600008F
:1003C00088ED00E01C2B0000000000200000002051
:1003D0007047000007B5044B0093044A402300F027
:1003E00032F803B05DF804FBF10300003D0000208B
:1003F0002DE9F84388461446B2B10F4B0F4E032542
:10040000002743F00109224608EB0701002002F013
:10041000DFF80744241A48B933782BB14FF47A40F7
:10042000C847013D02D13570BDE8F8830123337020
:10043000002CE8D1F8E700BF202B00003C00002092
:10044000704702F0F5B8F0B595B01D46164608465F
:100450000C4601F031F81A9B0D93CDE90865002593
:100460002B46082205A920460A958DF82C500C959C
:1004700001F03EF8079B0293069B03939DF814300E
:100480008DF8115003F00302012A1DD1BDF814208C
:10049000059DC3F3C203C2F383168DF81030B2007A
:1004A00008230EA9204601F023F8C5F3952508ABD3
:1004B0000093324602AB0EA9284600F0A5FB204669
:1004C00000F0FEFF15B0F0BD022AF8D1BDF81650BD
:1004D000C3F3C203C5F389158DF810300827082D22
:1004E0002E4628BF08263B4632460EA9204600F07D
:1004F000FFFFAD1B08AB02AA31460EA8374400F03F
:10050000E7FB002DEBD1DAE77047000007B5044B9D
:100510000093044A4023FFF796FF03B05DF804FB05
:100520008D0500007E00002030B50A4D0FCD89B04A
:100530006C460FC495E80F0084E80F0006230022E4
:1005400069460548009301F043F8044B00221A70F5
:1005500009B030BD342B0000000000207D000020D9
:1005600008B50848084A0378D35C33B1043001F079
:1005700045FEBDE80840FFF7D7BF0C3001F012FC84
:10058000F7E700BF000000207406002038B50B48D4
:100590000B4C0C4D002323700378EB5CD2B24BB1B3
:1005A000043001F0C7FE084B1A7812B12378002BF3
:1005B000FBD038BD0C3001F06BFCF4E700000020EC
:1005C000BE000020740600207D000020FFF7ACBFB5
:1005D00038B50A4DFFF735FF0421284600F07EFAB2
:1005E000074B01245C71FFF7F1FF042105F11000B6
:1005F00000F074FA034B5C7138BD00BFE82A0000BC
:10060000140000201C000020037813F0040216D010
:1006100003F00303012B03D0022B09D00120704704
:100620000A6800880232C0F3831002440A60F5E7CA
:100630000B684288023303EB92130B60EEE710461F
:10064000704700002DE9F04FDFF810A10F4685B08C
:100650000446861C0020154600F03EFCDAF8042013
:100660003A60DAF8083003F580739B1A0AF21C47E7
:100670000AF583690AF21448B34219D30020002D09
:1006800068D004F00F039B0143F0050363F30F00F0
:10069000DAF80430DAB2033233444AF82200002098
:1006A000CAF8043000F01AFC012005B0BDE8F08F54
:1006B0000121384600F037FC484600F04CFC40462B
:1006C00000F049FCDAF808000090C0B203300AEBF1
:1006D00080006946FFF798FF009B30BBDAB20AEB57
:1006E0008202D16801919A1C0133DBB20AEB8303C9
:1006F0000092D3F80CB001F00303012B22D0022B9F
:1007000015D08346404600F029FC10B1009BCAF882
:1007100008305946384600F006FCDAF80830DAF8B6
:10072000042003F580739B1AA6E7D8B2CEE7BDF884
:100730000630C3F3891303334FEA1B4B02EB9303D9
:100740000093DFE7BDF80430C3F383134FEA1B4B7C
:100750001344F5E7A40544F0060099E79001002052
:10076000064B074810B501221A7000F05EFE0446E1
:1007700010B9044800F0C6FE204610BD90010020CC
:10078000082B0000982B000030B50A4C71B10A4AC2
:100790000A49121BD20800239A4201D1002030BD21
:1007A00031F82350854202D00133F5E7034654F86F
:1007B0003300F4E7A82A0000E82A00000000002027
:1007C000094B013903EBC000032909D8DFE801F028
:1007D0000A02040604207047007970474079704788
:1007E0000020704702207047A82A0000034BD3E97D
:1007F0000130C31A58425841704700BF9001002091
:100800002DE9FF41FFF7F2FF0546002840F0E9809F
:10081000754CC4F81804BFF34F8FA3680093DBB284
:10082000033304EB83006946FFF7EEFE009B18B12B
:10083000D4F81824002A5AD0DAB2991C013304EBF8
:100840008202DBB204EB8303D268DB68029302F01E
:100850000303022B0192009154D1BDF80630634886
:10086000C3F38917502F3E4628BF502606F10801D2
:1008700066F38F13C1F30901ADF8063000F0EDFD0A
:100880000546002800F0988000F016FE002308229C
:1008900001A9284600F022FE0099CB43DBB20133C8
:1008A000C9B20331B6EB830F4FEA830204EB810137
:1008B00025D95FFA82F80823A6EB0806284600F03F
:1008C0000DFEF6B208F10803494903F0FC03324675
:1008D000284600F003FE009B033703EB97070097C1
:1008E000D4F81834002B43D1D4F8106453E0626874
:1008F0009A4294D8A260284604B0BDE8F08108234B
:100900003246E5E7012B57D1BDF804303748C3F331
:100910008311062928BF062161F38913023101F0F2
:100920000F018900ADF8043000F097FD054600285E
:1009300042D000F0C1FD0023082201A9284600F0A2
:10094000CDFD0026BDF80420C2F38312B300964209
:1009500003F10803C4D200994A1CC9B203310092C2
:1009600004EB81010422284600F0B8FD0136E9E7D6
:10097000284600F0A5FDFFF739FF80F00100C5B261
:10098000B9E7F3685B7923B1336829461B683046C1
:100990009847F3681E68002EF3D1284600F090FDBA
:1009A000304600F099FAD4F818340BB9009BA360D4
:1009B000002000F093FADEE7D4F8104454B90D4B50
:1009C0000D480E49C01AC008000440F0020000F0B3
:1009D0005DF8D0E7236820469B689847E3681C6869
:1009E000ECE7002587E700BF90010020082B0000FE
:1009F0009C010020A82A0000D82A0000812B0000BA
:100A00002DE9F34704460E46924601A901221846F5
:100A10009946FFF717FE1B4F10B3019D4FF00008DA
:100A2000AA1CC84508EB020123D11748002100F099
:100A300057FA80F31000000440EA1440E4006B1CF5
:100A400004F03804DBB2EDB244F0010407EB830399
:100A5000033544EA881444EA8624D86047F82540E0
:100A60003B781BB1FFF7CCFE0028FBD102B0BDE8FC
:100A7000F087C9B207EB81015AF82830CB6008F142
:100A80000108CEE790010020AC05002000231A46A3
:100A9000FFF7B6BF07B50123019201AAFFF7B0FF28
:100AA00003B05DF804FB07B5CDE9002302236A46D5
:100AB000FFF7A6FF03B05DF804FB7FB5CDE9012386
:100AC000089B0393099B04930A9B059301AA0523A2
:100AD000FFF796FF07B05DF804FB000030B50F4C40
:100AE000D4F8102403460020114631B9D9680871A2
:100AF0004AB9C4F810340A6030BDC9680D7985421E
:100B000006D00968F1E7D26814680C601360F3E757
:100B100001300A28E8D14FF0FF30EDE790010020C6
:100B200038B5084B0125D3F810441D7004B938BD01
:100B3000E3685D71236820465B689847E3681C683A
:100B4000F4E700BF9001002030B5C38885B00446AB
:100B50000D4633B1144A00921449154A284600F054
:100B600057FA217A05291DD0637A4BB1A088FFF787
:100B700027FE104B104953F82020284600F048FA71
:100B8000227A0E4BA08853F8222003920021FFF70F
:100B9000FBFD039A0A490346284605B0BDE83040EC
:100BA00000F036BA05B030BDC42B0000AC2B0000FD
:100BB000A42B0000382C0000C92B00005C2C000086
:100BC000CC2B000007B503460846197A052911D039
:100BD0005B7A2BB1094A0A49019000F019FA019891
:100BE0000849019000F014FA019803B05DF804EB95
:100BF00000F003BA002AF8D0F2E700BFC42B0000CF
:100C0000C92B0000C12B00002DE9F04385B01F4621
:100C10000C9D002395F80C902B7306460C469046CD
:100C200029463846FFF790FFB8F1060F09D8DFE8EC
:100C300008F00412181F283340003146284600F0FF
:100C4000E7F9002229463846FFF7BCFF85F80C90EB
:100C500005B0BDE8F08322683146284600F0D8F997
:100C6000EFE7D4E900233146284600F0D1F9E8E760
:100C7000A36800933146D4E90023284600F0C8F960
:100C8000DFE7E3680193A36800933146D4E90023CA
:100C9000284600F0BDF9D4E723690293E368019385
:100CA000A36800933146D4E90023284600F0B0F948
:100CB000C7E76369039323690293E3680193A36819
:100CC00000933146D4E90023284600F0A1F9B8E7A3
:100CD00008292DE9F74F80460E4617461C463DD899
:100CE00000251B7B2573214610460193FFF72CFF3F
:100CF000DFF88CA0DFF88CB0AE4232D918F80520AE
:100D00005946204600F084F90135082DF4D11B49DD
:100D1000DFF874A0DFF874B0204600F079F94FF0E6
:100D200000094E4524D918F809507E2D1ED82846B2
:100D300001F03AFE002814BF2A462E2259462046CA
:100D400000F066F909F10109B9F1080FE9D10122B2
:100D500021463846FFF736FF019B237303B0BDE8F9
:100D6000F08F5146204600F053F9CDE72E22E5E7FB
:100D70005146204600F04CF9E4E700BFE02B0000AC
:100D8000DC2B0000D62B0000DE2B0000E22B000045
:100D90001FB50021039001AA44F20100CDE9011121
:100DA00000F030F805B05DF804FB000082B00123CC
:100DB0008DF807309DF80730114B1860596044F2E8
:100DC000010188429A6012D044F20201884206D1A1
:100DD000DA60DA6812689A61DA685268DA6172B6C3
:100DE0009DF80730002BFBD162B602B070471A6144
:100DF0001A6992685A611A6912689A611A69ECE76D
:100E000048060020F0B5064687B00F46154672B674
:100E1000FFF786FEFFF7F4FC0028FBD11E4B1F4CAA
:100E2000E41AE40844F2010324049E4244F001045D
:100E300017D044F202039E4228D1D5E90032184966
:100E40002046FFF730FE174BD3F8F030DB0700D514
:100E500000BE2A463946304607B0BDE8F040FFF7ED
:100E6000A5BFAA680592104600F074FB2968029796
:100E70000191696800910346059A0B492046FFF7E6
:100E80001CFE0A492046FFF701FEDCE708493A4606
:100E90002046FFF7FFFDD6E7A82A0000D82A000069
:100EA000702C000000ED00E08A2C0000B02C000047
:100EB000C42C000072B6024A1368013313607047F5
:100EC00068060020034A1368013B136003B962B649
:100ED000704700BF68060020FFF7ECBFFFF7F2BFC6
:100EE00010B5034653E8000F0A4643E8002494F087
:100EF000000FF7D110BD10B5034653E8002F42EAAA
:100F0000010043E8000494F0000FF6D110BD10B5C5
:100F1000034653E8000F00EA010243E8002494F07E
:100F2000000FF6D110BD10B5034653E8002F02EBB9
:100F3000010043E8000494F0000FF6D110BD10B595
:100F4000034653E8002FA2EB010043E8000494F0AD
:100F5000000FF6D110BD0121FFF7CDBF0021FFF733
:100F6000D6BF10B590B1D0E9012301689B1ADBB25E
:100F70000A60013BDBB2FF2B026802D10020107136
:100F800010BD11684C1C14600B70F2E70E20F7E7DF
:100F900038B504460020FFF79FFF22686368116898
:100FA000994213D9481E106011F8013CE568218A66
:100FB00001FB0355A36811791B1ADBB2994200D2D9
:100FC00013710020FFF78AFF284638BD0025F8E797
:100FD00038B5054600200C46FFF77EFF2A681368E7
:100FE000591C1160E968641A298AB4FBF1F41C7079
:100FF000BDE838400020FFF771BF826810B5044695
:101000002AB143690168006998470023A36010BDB5
:101010000EB403B5039921B104AB01AA019300F00A
:1010200077F802B05DF804EB03B070470A2938B5D1
:1010300004460D4602D10D21FFF7F8FFA368226890
:10104000591CA160D554D4E901329A4204D32046F8
:10105000BDE83840FFF7D1BF38BD00002DE9F84F9B
:101060009846DDE90A43154682460F460A464FF088
:101070000109AA420FD2C14538BFC14613F0010B86
:1010800001D16CB900240126B8F1010F1BD908F178
:10109000FF386E43F8E709F10109B2FBF5F2E8E722
:1010A0009B070ED5B8F1000F0CBF30262026A145B6
:1010B000E9D2013C31465046FFF7B8FF002CF6D18B
:1010C000E0E72026F3E7B7FBF6F39D42E1D9DFF82E
:1010D0003C80B7FBF6F3504618F8031006FB137775
:1010E000FFF7A4FF3346AB42B6FBF5F6F1D2BBF1F6
:1010F000000F02D00CB1A14501D3BDE8F88F20212B
:101100005046013CFFF792FFF4E700BFDC2C0000E3
:101110002DE9F74F054617468846002900F03E8125
:1011200018F8011B49B92B7B002B00F037812846AA
:1011300003B0BDE8F04FFFF760BF252940F0B7804E
:10114000002698F800302D2B424608F1010823D0E4
:10115000302B24D02B2B25D000242A2B02F1010187
:1011600023D13B681A1D1B683A601C440A46137859
:101170002E2B26D101324FF0000A104610F8011B29
:10118000A1F1300CBCF1090F1DD80A2303FB0A138F
:10119000A3F1300A0246F0E746F00106D1E746F037
:1011A0000206CEE746F00406CBE711F8013CA3F1B6
:1011B00030000928DBD80A2202FB0434303C0A46FE
:1011C000CBE74FF0000A12F8011B01F0FB00682882
:1011D0009046F8D0782909D86F290CD8632962D0B5
:1011E00022D8252963D0582900F0888098F800304B
:1011F000002B95D197E770390829F7D801A353F848
:1012000021F000BF77130000ED110000ED11000088
:101210000D130000ED110000EB120000ED110000B5
:10122000ED110000FD120000642901D06929DDD113
:101230003A68D2F80090111D89EAE9723960A2EB90
:10124000E9724FF0010B092A35DCD34538BFD3468C
:101250002CB1B9F1000F01DB720700D5013CB307D7
:1012600002D5BAF1000F03D0F00701D44CBB002423
:10127000B9F1000F2DDAC9F100092D212846FFF739
:10128000D5FE06F00302022A04D1BAF1000F01D103
:101290001CBB0024CDE9004653460A224946284695
:1012A000FFF7DCFEA2E73B681A1D19783A60284672
:1012B000FFF7BCFE9AE70A230BF1010BB2FBF3F236
:1012C000C1E7A345D4D220212846013CFFF7AEFE5A
:1012D000CCE77107D5D52B21D0E7A345DAD2302151
:1012E0002846013CFFF7A2FED2E73968CDE9004667
:1012F0000A1D3A6053460A220968D0E739680A1D78
:101300003A60CDE9004653461022F5E73B681A1DC6
:101310003A6016F00106D3F8009024D1B9F1000F1D
:1013200003D0484601F090FB0646B4421DD809F1AF
:10133000FF3919F8011F00293FF458AF2846FFF77D
:1013400075FEF6E728460136FFF770FE19F806101D
:101350000029F7D1A642BFF449AF20212846013C1D
:10136000FFF764FEF6E70026F0E720212846013C5F
:10137000FFF75CFED9E73B681A1D3A60302128462A
:101380001C68FFF753FE78212846FFF74FFE002226
:101390000823CDE900322146102280E703B0BDE8E2
:1013A000F08F00BF2DE9F84FB0F806A04579D2F8CC
:1013B00000B09DF828900AFB05F5043D88460BEB2C
:1013C0000301A94203F1040488BFA5EB030BB4FB9E
:1013D000FAF607460AFB1644C2F800B04EB9AAEB6B
:1013E00004055D4528BF5D46BBF1000F04D1BDE893
:1013F000F88F3F68013EF1E7043408EB06003C44F7
:101400002A46B9F1000F0DD02146ABEB050B01F0D8
:10141000D0FADA452E443F6855464FF0000428BF05
:101420005D46E1E701462046EFE7FFF79ABDF8B5D4
:1014300046790146721E0546002393422D6803D368
:101440000024A64202D8F8BD0133F6E70F6828460B
:10145000FFF7BEFD01343946F3E72DE9F843068A6C
:10146000CD1C0746FFF794FD043E35440446B5FB0A
:10147000F6F5F0B14FF48073EDB28380C680013D84
:10148000076081464FF00008A84512D23846FFF7A2
:101490007FFD064648B163790133637108F10108A5
:1014A000C9F8000007608146EEE72046FFF7BFFF5E
:1014B00034462046BDE8F88301210430FFF733BDF0
:1014C00010B5012104460430FFF739FDC0B220B940
:1014D0002046BDE81040FFF7AABF10BD1FB503921C
:1014E0000022009203AAFFF75DFF05B05DF804FB40
:1014F0001FB503920122009203AAFFF753FF05B024
:101500005DF804FB836800225A60C3E904229A60F4
:10151000DA601A607047000010B50D49A1F58C72B1
:10152000914201D800200FE08C1AE30F03EBE40393
:101530005B1002EBC30452F83330834205D802D269
:1015400004F10802ECE7606810BD2146E8E700BF3F
:10155000B431000008B5FFF7DFFF024B002808BFD9
:10156000184608BD863000001FB503788DF800309E
:101570004368019383688DF80830C368054A039374
:10158000054B684653F8213052F82110984705B0B2
:101590005DF804FB6C060020700600201FB5037880
:1015A0008DF800304368019383688DF80830C36874
:1015B000054A0393054B684653F8213052F8211031
:1015C000984705B05DF804FB6C060020700600200B
:1015D000F0B5194B90F800C091F81DE043F82C20AD
:1015E000164B16460A6943F82C20154B03F80CE0FD
:1015F0000C4607460FCC89B06D460FC594E80F0026
:1016000085E80F00CDF810C0BEF1000F09D0002E04
:101610000C4A694608BF3246381D00F02DFD09B05E
:10162000F0BD002E084A694608BF324607F10C009B
:1016300000F004FBF3E700BF700600206C060020FA
:1016400074060020691500009D150000014B1B6801
:10165000184700BF7806002038B50B4B98420C465F
:1016600001D0002038BD0020FFF736FC074B1D7964
:1016700015B901221C601A710020FFF72FFC002D04
:10168000EFD01120EEE700BF0020004078060020D8
:10169000034B984201BF034B00221A601A71704736
:1016A000002000407806002000F1804000F5E04076
:1016B000002382B0036003680193019B02B070476E
:1016C000F0B5524B524CD3F8043185B0002B3DD0CD
:1016D00094F82E204FF48270FFF7E6FF2AB394F8B7
:1016E0002F3013BB494AD2F80031002B32D04FF4CF
:1016F0008070FFF7D9FF638B94F82D00834250D997
:1017000021891B1A9BB289B26383CB1A616801EBF2
:101710004303C2F82C36C2F830064FF48270FFF74C
:10172000C3FF3A4B01225A6014E063680293238995
:10173000ADF80C30E36800218DF8041033BB23743E
:10174000236801A89847002384F82F3094F82E309E
:10175000002BC7D12D4BD3F810315BB14FF48870FB
:10176000FFF7A2FF0023237402238DF8043001A8A1
:1017700023689847254BD3F81431EBB14FF48A70A6
:10178000FFF792FF0023237405B0F0BD208B608328
:1017900063602081E160002AD2D11C4B01221A60D3
:1017A000CEE7BAD1E368012184F82F1013B10021EC
:1017B0006183AEE76383B0E766694FF000470125B8
:1017C000002EE1D0B6FA86F227FA02F346329200F2
:1017D00026EA030602F1804303F5E0431B68002B71
:1017E000EED01046A2F58C72FFF75EFFD30882F0B0
:1017F0000402C2F380028DF808308DF8045023688B
:101800008DF8092001A89847DAE700BF0070004072
:101810008006002038B5204A92F82C300446002B70
:1018200037D111601D490078C1F8F0056078C1F822
:10183000F4050125E078137482F82D30536182F8A5
:101840002F306FF0004382F82E0082F82C504FF4B6
:101850008270C1F80833FFF727FF4FF48070FFF75D
:1018600023FF4FF48A70FFF71FFFA3780C485B013A
:10187000DBB280F80733802303600223C1F804330E
:1018800092F82E300BB1C1F80453C1F80055002076
:1018900038BD0820FCE700BF800600200070004033
:1018A00000E100E070B52A4B1A7C02F0FF05002A27
:1018B0004BD10A79012A9CBF264CC4F8005500F18F
:1018C0000C0503EB4504247924B993F82D40013429
:1018D00083F82D4003EB4503CC790D7A8E781C718B
:1018E0005D714B7836021B0106F4E06603F03003AD
:1018F00033430E7806F003063343CE78360306F4FE
:1019000080563343160406F4E02633434E79897932
:10191000360506F480160906334301F080710B4347
:101920000C4901EB0016000100F1804000F5E04099
:10193000012AC6F81835C0F81455C0F8104502D869
:101940000123C1F80035002000E0112070BD00BF68
:10195000800600200070004070B5324A147C04F00C
:10196000FF03002C5CD1304C012503261574C4F80C
:101970000863C4F82C16C4F8305692F82D40AC42D7
:101980000CD91D46190101F1804101F5E0410133F7
:10199000082BC1F81455C1F81055F3D100F10C0310
:1019A000000102EB430300F1804000F5E0401979AB
:1019B0005B79C0F81435C0F810151B4901230B6082
:1019C0004B6042F21073D1F8040108B9013BFAD11F
:1019D0004FF48070FFF768FE4FF48270FFF764FEEB
:1019E000012C11D90F4800210B0103F1804303F5AD
:1019F000E0430131047F457FC3F814550829C3F83B
:101A0000104500F10200EFD192F82E10064B29B1DB
:101A100003210020C3F80413107470BD0221F8E7FD
:101A20001120FAE780060020007000402DE9F34104
:101A3000104C114F114E00254FF48038236883B1AC
:101A4000D7F8043308FA05F21A420AD000232360BB
:101A500023680193A4F50040019B80B2D6E90031D0
:101A600098470135042D04F10404E7D102B0BDE824
:101A7000F08100BF4081004000800040B00600209F
:101A80000023435082B043580193019B02B070473A
:101A90000A4610B54FF48E71FFF7F2FF136A916892
:101AA000C95C136A01331362C0F81C1510BD8B6941
:101AB0000A4610B54FF4847123B9FFF7E1FFD0F85F
:101AC000183510BDFFF7DCFF536AD168D0F8180550
:101AD000C854536A01335362F3E700001FB5012372
:101AE0008DF80030044BCDE90110D3E900126846AF
:101AF000904705B05DF804FBBC06002030B54D4DA5
:101B0000D5F804339A0585B051D5D5F82431002B8A
:101B10004DD04FF492712846FFF7B2FF4FF4017396
:101B2000C5F80833444B93F829200AB901226A60AA
:101B3000404902228DF80020D1F88024C1F8802489
:101B400003929A690292DA6801920022C3E906229E
:101B50006846D3E9001290473648D0F81C315BB193
:101B6000354A5169136A99424DD992F82830002BB1
:101B700049D11146FFF78CFF2E48D0F84431002B95
:101B800056D04FF4A271FFF77BFF2B4B93F829201F
:101B90000AB1012202609A69002A49D0586AD968BC
:101BA00000229A6105B0BDE83040FFF797BFD5F835
:101BB00004335B07D0D5D5F80831002BCCD01E4CB0
:101BC0001C482146FFF773FF636AA2699A42C3D19A
:101BD000E369E1684BB1A3612369E3600023606AB4
:101BE000E3616362FFF77AFFB6E794F829300BB937
:101BF00001236B600F4B4FF40172C3F808230023DD
:101C0000606AA361EEE70B484FF48E71FFF738FF6F
:101C10005369002BB0D051690291002391688DF86F
:101C20000030019153616846D2E900139847A3E759
:101C300005B030BD00200040BC0600202DE9F8436F
:101C4000534D90F804802C2303FB0853064693F869
:101C50002A300C469146002B40F096804D49006892
:101C6000FFF7FAFC0746002840F0908022683068B1
:101C7000511C0BD04FF0A04101239340C1F808350F
:101C800002F5E0734FF0030C41F823C061684B1C70
:101C90001FBF01F5E0734FF0A04C4FF0000E4CF861
:101CA00023E0A369C0F8243594F814C0637DBCF127
:101CB000010F4CEA0303C0F86C35C0F81415C0F8E6
:101CC0000C251DD1A268531C1FBF02F5E0734FF015
:101CD000A0414FF0000C41F823C0E368591C0BD021
:101CE0004FF0A04C01219940CCF8081503F5E071A4
:101CF0004FF0030E4CF821E0C0F80835C0F810256D
:101D00002C2202FB08F2AB18C3F804902369AB50F5
:101D1000B9F1000F20D04FF48E71247FFFF7B0FE91
:101D20004FF4A2713068FFF7ABFE32681A4BC2F86D
:101D30000433130B42F307326101002AC9B21EDBE0
:101D40001648841884F800130121520903F01F0378
:101D500001FA03F340F8223033680422C3F8002567
:101D60002C2303FB08530022C3E9062283F8292011
:101D70005A61012283F82A203846BDE8F883084AD0
:101D800003F00F03D154E7E70827F5E71127F3E73E
:101D9000BC060020FD1A00008000020000E100E007
:101DA00014ED00E0F8B503680579304C0022C3F863
:101DB00000252C2202FB05425268A2B12C4AC3F82E
:101DC00008231A0B43F30733002B0CDB02F01F012F
:101DD0005B0901228A402033264941F82320BFF3C2
:101DE0004F8FBFF36F8F0068D0F80C65D0F81415D3
:101DF000D0F80835D0F810254FF0FF37BE42C0F8B4
:101E0000147518BF06F5E076C0F80C75C0F80875B3
:101E1000C0F810751EBF4FF0A0474FF0020C47F8F6
:101E200026C04E1C1FBF4FF0A04601F5E0710227EF
:101E300046F82170511C1FBF4FF0A04102F5E0721F
:101E4000022641F822605A1C1FBF03F5E0734FF0D1
:101E5000A042022142F82310FFF71AFC2C2303FBB7
:101E60000544002384F82A306360F8BDBC060020D6
:101E70008402020000E100E00279044B2C2101FB06
:101E800002335869003818BF01207047BC06002093
:101E90002DE9F84F064690F8048089469246FFF7F0
:101EA000EBFF044600283CD1204F2C2508FB057B86
:101EB0004FF48E71CBF814A0CBF80890CBF820002B
:101EC0008BF828003068FFF7DBFD30680123836062
:101ED0005946FFF7DDFDDBF804305D461BBB30687B
:101EE000DBF814402B6A9C4211D83368D3F81C21CC
:101EF000002AFBD00122DA6000202C2303FB0877A4
:101F000000237B61BDE8F88F95F828303BB9D0F805
:101F10001C31002BF8D05946FFF7BAFDE2E70F203D
:101F2000EBE71120EEE72046ECE700BFBC060020FF
:101F30000023435082B043580193019B02B0704785
:101F40001FB501238DF80030044BCDE90110D3E912
:101F500000126846904705B05DF804FBE8060020D3
:101F60007FB5434AD2F82461002E60D010464FF46A
:101F70009271FFF7DDFF02238DF80030D2F8803434
:101F8000C2F880340393D2F83C350293394BDA68B7
:101F900001920022C3E906226846D3E90012904765
:101FA0003348D0F8443173B14FF4A271FFF7C0FF4A
:101FB000304B9A693AB10022C3E90622D968D0F8B9
:101FC0003C05FFF7BDFF2A48D0F82031ABB14FF4F4
:101FD0009071FFF7ADFF0123C360264B5A6962B1D0
:101FE000D0F84C150291002299688DF800200191DB
:101FF0005A616846D3E9001290471D48D0F858311D
:102000009BB14FF4AC71FFF793FF1A4B5A6962B161
:10201000D0F84C150291002299688DF800200191AA
:102020005A616846D3E90012904704B070BDD2F8F7
:102030001031002BB4D04FF488711046FFF778FFB1
:102040000C4BD2F83C0599698842A9D1DC69D96862
:1020500064B1D2F8005225F02005C2F800521A6986
:102060009C61DA60DE61FFF76BFF99E79C61FAE73C
:1020700000200040E80600202DE9F8435A4E90F871
:102080000480242303FB0863044693F820300D46A4
:102090009146002B40F0A38054490068FFF7DCFA1A
:1020A0000746002840F09D802A682068511C0BD00C
:1020B0004FF0A04101239340C1F8083502F5E073C9
:1020C0004FF0030C41F823C069684B1C1FBF01F59A
:1020D000E0734FF0A04C4FF0000E4CF823E0AB69DA
:1020E000C0F8243595F814C06B7DBCF1010F4CEAA3
:1020F0000303C0F86C35C0F80C25C0F814151DD1C9
:10210000AA68531C1FBF02F5E0734FF0A0414FF0C7
:10211000000C41F823C0EB68591C0BD04FF0A04CC9
:1021200001219940CCF8081503F5E0714FF0030E3A
:102130004CF821E0C0F80835C0F81025242202FB35
:1021400008F2B318C3F804902B69B350B9F1000F2B
:102150002FD04FF488712A7FFFF7EAFE20684FF4F2
:102160009071FFF7E5FE20684FF49271FFF7E0FEF3
:1021700020684FF4A271FFF7DBFE4FF4AC712068CA
:10218000FFF7D6FE23681A49C3F80413190B43F36B
:1021900007335201002BD2B21CDB1648C51885F854
:1021A000002301225B0901F01F0102FA01F140F84E
:1021B000231023680822C3F80025242303FB0866A4
:1021C0000023C6E906337361012386F820303846C0
:1021D000BDE8F883084B01F00F015A54E9E70827DE
:1021E000F5E71127F3E700BFE8060020611F0000B4
:1021F0001003420000E100E014ED00E0F8B5444CAB
:102200000579242303FB054302465B680068ABB1F4
:10221000404BC0F8083340F30733002B4FEA10312E
:102220000CDB01F01F065B090121B14020333A4E5F
:1022300046F82310BFF34F8FBFF36F8FD0F80032F3
:1022400023F02003C0F80032242303FB05439B69DD
:102250002BB14FF4A271FFF76BFE012343604FF4E3
:10226000AC71FFF765FE0123C360242303FB054324
:10227000D0F858110029FBD0996919B1D0F8441150
:102280000029F5D00023C0F800351368D3F80C7589
:10229000D3F81465D3F80825D3F810154FF0FF3C98
:1022A0006745C3F80CC518BF07F5E077C3F814C538
:1022B000C3F808C5C3F810C51EBF4FF0A0434FF0C8
:1022C000020C43F827C0771C1FBF4FF0A04306F550
:1022D000E076022743F826704E1C1FBF01F5E0711F
:1022E0004FF0A043022643F82160531C1FBF4FF05C
:1022F000A04302F5E072022143F82210FFF7C8F96B
:10230000242303FB0544002384F820306360F8BDD8
:10231000E80600201003420000E100E00279044BCF
:10232000242101FB02335869003818BF012070478F
:10233000E806002001F06043B3F1005F2DE9F047AB
:102340000646884692463BD190F80490FFF7E6FF98
:102350000446002836D11D4F3068242505FB097539
:102360004FF49071C5F814A0C5F80880FFF7E0FDA0
:102370004FF4AC713068FFF7DBFD33686A69A96818
:10238000C3F84415C3F8482501229A606A68DAB98F
:10239000D3F82021D3F858011AB90028F8D00F201B
:1023A00007E00028FBD10122DA60D3F85821002A87
:1023B000FBD0242303FB097700237B61BDE8F08772
:1023C0001020FBE71120F9E72046F7E7E806002098
:1023D000704700001FB5184A10685168127A01ABA7
:1023E00003C3164916481A70FFF714FA044668B179
:1023F0001448154B15491B1ADB081B0443F0010058
:102400002246FEF747FB2046FEF7C2FC01A900204A
:10241000FFF748FA044668B10A480B4B0B491B1AF0
:10242000DB081B0443F001002246FEF733FB204685
:10243000FEF7AEFC04B010BD13320000D123000043
:102440001C320000A82A0000D82A0000D331000066
:10245000F7B500210846FEF783F9184C184BE41A2B
:10246000E4082404054640B10246164944F0010040
:10247000FEF710FB2846FEF78BFC44F00304FEF742
:10248000A7F8FFF7A7FF1049104D114F2046FEF7A0
:10249000FDFA45F001050DF106010020FFF75CFA99
:1024A000BDF9062039462046FEF7F4FA4FF47A7655
:1024B0004FF47A40A847013EFAD1ECE7D82A000051
:1024C000A82A0000D3310000E831000020320000CB
:1024D000FD3100000369C26893429CBF80681B18ED
:1024E000013B981A70472DE9F843D0E9029405465C
:1024F000A9EB04084068904520440F46144404D9D1
:1025000000F057FAEC60BDE8F8834246A4EB0904FA
:1025100000F04FFA6868224607EB0801F0E72DE962
:10252000F843C5680646894617464FF000083469E7
:10253000B3687068A54228BFE418013C621B5C1BAD
:10254000BC4228BF3C46944228BF14464946284412
:10255000224600F02EFAB3682544AB4208BF00259E
:102560003F1BA044A144F560E1D14046BDE8F8839B
:1025700010B5114C114AA2610223C4E90433104B77
:10258000E361A2644FF400730E4A0F492362E264D0
:1025900000231022E01DA3626362E362A36563650A
:1025A000E365226500F02EFA0849204600F02AFA79
:1025B0002023A37110BD00BF0C07002026320000AD
:1025C00094070020840700202F32000033320000DF
:1025D00070B5164B182400FB04451D4404FB003362
:1025E0001646DC6A012C0ED0022C18D0E4B928461D
:1025F000FFF770FF864204D832462846FFF773FF84
:102600003446204670BD2846FFF764FF86423446B4
:1026100028BF044622462846FFF765FFF1E7284613
:10262000BDE87040FFF77BBF0024EAE70C070020FD
:10263000FFF79EBF4FF08053D3F83001421C04BF18
:102640004FF0704393F8E00F831F58425841704792
:102650004FF0704393F8E02F062A09D1D3F8E83FF2
:10266000C3F30313033B032B02D8024AD05C704729
:10267000002070474232000008B5FFF7DBFF40B191
:102680004FF080538F4AD3F82433C3F30423C2F8A6
:102690004035FFF7DDFF10B18B4B8C4A5A67FFF7CF
:1026A000C9FF48B14FF080534FF08042D3F8443215
:1026B000C3F34233C2F83C35FFF7CAFF30B1844A56
:1026C000D2F8FC3023F08073C2F8FC30FFF7B2FF81
:1026D00040B14FF080430022C3F80C21C3F8102111
:1026E000C3F83825FFF7B4FF20B14FF08043032231
:1026F000C3F8A025FFF7ACFF60B1764B0522C3F805
:1027000010260122C3F888260022C3F818263F228B
:10271000C3F814264FF08053D3F83021511C09BF61
:102720004FF07043D3F8343193F8E02FD3F8E83FFB
:1027300008BFC3F30313062A4DD1033B032B03D871
:10274000654AD35C002B46D04FF08052634BD2F8E1
:102750000414C3F82015D2F80814C3F82415D2F8CD
:102760000C14C3F82815D2F81014C3F82C15D2F89D
:102770001414C3F83015D2F81814C3F83415D2F86D
:102780001C14C3F84015D2F82014C3F84415D2F82D
:102790002414C3F84815D2F82814C3F84C15D2F8FD
:1027A0002C14C3F85015D2F83014C3F85415D2F8CD
:1027B0003414C3F86015D2F83814C3F86415D2F88D
:1027C0003C14C3F86815D2F84014C3F86C15D2F85D
:1027D0004424C3F87025FFF72DFF48B14FF0805314
:1027E0004FF08042D3F8583203F04F03C2F8E43E72
:1027F000FFF720FF48B14FF08043D3F80024D20701
:1028000044BF6FF00102C3F800244FF08053D3F8A7
:102810003021062A0ED1D3F83431033B032B02D8E2
:102820002F4AD35C33B12F4AD2F83C3743F480634C
:10283000C2F83C37264AD2F8883043F47003C2F815
:102840008830BFF34F8FBFF36F8F4FF01023D3F853
:102850000022002A03DBD3F80432002B2EDA224BAD
:102860000122C3F80425D3F80024002AFBD04FF03E
:1028700010221521C2F80012D3F80024002AFBD040
:102880004FF010231522C3F80422174BD3F800246D
:10289000002AFBD00022C3F80425D3F80024002A24
:1028A000FBD0BFF34F8F0A49104BCA6802F4E062B5
:1028B0001343CB60BFF34F8F00BFFDE70C4B0D4AB6
:1028C0001A6008BD0030014000C007400DF0ADBAED
:1028D00000ED00E0005000403A32000000C000402F
:1028E0003E3200000010004000E001400400FA0504
:1028F000240000200090D0037F2805D8034B185CEB
:10290000034B5B5C18407047002070475432000056
:10291000D4320000A0F16103192B98BF2038704712
:10292000A0F14103192B98BF203070477F2805D8AC
:10293000034B185C034B5B5C1840704700207047EA
:1029400054320000D4320000A0F16103192B98BF6B
:1029500020387047A0F14103192B98BF20307047F1
:102960007F299ABF017001206FF02E0070475AB185
:102970000A787F2A0AD800B10260002119605960E4
:10298000501A18BF01207047002070476FF02E00CA
:102990007047000008B5034B5B689B681B6898474D
:1029A00008BD00BF2800002008B50921FFF7F2FF8D
:1029B00008BD844640EA010313F0030F18D1844692
:1029C000202A0BD32DE9F007B1E8F807A0E8F807B3
:1029D000A2F12002202AF7D2BDE8F007042A07D38B
:1029E00051F8043B40F8043BA2F10402042AF7D258
:1029F000002A05D011F8013B00F8013B013AF9D15A
:102A000060467047024610F0030F16D111F0030F15
:102A100013D12DE9F0004FF001374FF0803351F81A
:102A2000044BA4EB070525EA04051D4002D142F83A
:102A3000044BF4E7A1F10401F0BC11F8013B02F8EA
:102A4000013B002BF9D1704700F1010110F0030F99
:102A500011D010F8012B002A23D010F0030F0AD058
:102A600010F8012B002A1CD010F0030F03D010F82F
:102A7000012B002A15D02DE970004FF001324FF0E4
:102A8000803350F8044BA4EB020525EA04051D40F1
:102A900000D1F6E7A0F1040070BC10F8012B002A69
:082AA000FBD1A0EB010070471F
:102AA800B431000000000000B83100000000000050
:102AB800BC31000000000000C2310000000000002E
:102AC800C831000000000000CD3100000000000007
:102AD800922B000000000303EC2C00000000000013
:102AE800282B000000000000712B000014000020BB
:102AF800542B000000000000602B00001C00002088
:102B0800C00000208801002090010020C80000209B
:042B180018000000A1
:102B1C00000000000338FDD870470000D50300000A
:102B2C0041040000D1030000FFFFFFFFFFFFFFFF88
:102B3C00FFFFFFFFFFFFFFFF000000000000000091
:102B4C000000D601060100000D0500006105000023
:102B5C0009050000756172745F6C6F675F62616379
:102B6C006B656E64007274745F6C6F675F62616337
:102B7C006B656E64004261636B656E647320666C9A
:102B8C00757368656400617070000000B00500200A
:102B9C007F000000300600201B5B313B33316D00A1
:102BAC0025734C6F67732064726F70706564202896
:102BBC0025642925730D0A001B5B306D00257300FD
:102BCC003C25733E2025733A2000202530327800B6
:102BDC00202020007C002563001B5B313B33306DD3
:102BEC00001B5B313B33326D001B5B313B33336D70
:102BFC00001B5B313B33346D001B5B313B33356D5C
:102C0C00001B5B313B33366D001B5B313B33376D47
:102C1C00006572726F72007761726E696E6700691F
:102C2C006E666F006465627567000000C42B00005F
:102C3C00E52B0000A42B0000ED2B0000F52B000071
:102C4C00FD2B0000052C00000D2C0000152C0000A5
:102C5C00000000001D2C0000232C00002B2C000079
:102C6C00302C0000415353455254494F4E2046419D
:102C7C00494C45442061742025733A257500455212
:102C8C00524F52202575205B25735D2061742025E1
:102C9C00733A25750D0A50432061743A203078251B
:102CAC0030387800456E64206F66206572726F72E2
:102CBC00207265706F727400554E4B4E4F574E20FC
:102CCC004641554C542061742030782530385800DA
:102CDC003031323334353637383941424344454646
:102CEC007077725F6D676D74004E52465F5355433B
:102CFC0043455353004E52465F4552524F525F5319
:102D0C0056435F48414E444C45525F4D49535349DD
:102D1C004E47004E52465F4552524F525F534F46FC
:102D2C00544445564943455F4E4F545F454E4142CE
:102D3C004C4544004E52465F4552524F525F494EED
:102D4C005445524E414C004E52465F4552524F52E2
:102D5C005F4E4F5F4D454D004E52465F4552524FB0
:102D6C00525F4E4F545F464F554E44004E52465F95
:102D7C004552524F525F4E4F545F535550504F5225
:102D8C00544544004E52465F4552524F525F494E95
:102D9C0056414C49445F504152414D004E52465FA2
:102DAC004552524F525F494E56414C49445F535421
:102DBC00415445004E52465F4552524F525F494E68
:102DCC0056414C49445F4C454E475448004E524680
:102DDC005F4552524F525F494E56414C49445F46F3
:102DEC004C414753004E52465F4552524F525F4939
:102DFC004E56414C49445F44415441004E52465F4B
:102E0C004552524F525F444154415F53495A450019
:102E1C004E52465F4552524F525F54494D454F55A5
:102E2C0054004E52465F4552524F525F4E554C4CD9
:102E3C00004E52465F4552524F525F464F524249E6
:102E4C004444454E004E52465F4552524F525F49E4
:102E5C004E56414C49445F41444452004E52465FE9
:102E6C004552524F525F42555359004E52465F45A0
:102E7C0052524F525F4D4F44554C455F4E4F545F2D
:102E8C00494E495449414C495A4544004E52465FBB
:102E9C004552524F525F4D555445585F494E495417
:102EAC005F4641494C4544004E52465F4552524F95
:102EBC00525F4D555445585F4C4F434B5F4641490B
:102ECC004C4544004E52465F4552524F525F4D5551
:102EDC005445585F554E4C4F434B5F4641494C450A
:102EEC0044004E52465F4552524F525F4D55544529
:102EFC00585F434F4E445F494E49545F4641494CDD
:102F0C004544004E52465F4552524F525F4D4F441E
:102F1C00554C455F414C52454144595F494E4954CB
:102F2C0049414C495A4544004E52465F4552524F16
:102F3C00525F53544F524147455F46554C4C004EDF
:102F4C0052465F4552524F525F4150495F4E4F546B
:102F5C005F494D504C454D454E544544004E5246EC
:102F6C005F4552524F525F464541545552455F4E54
:102F7C004F545F454E41424C4544004E52465F45CE
:102F8C0052524F525F494F5F50454E44494E470095
:102F9C004E52465F4552524F525F4452565F545701
:102FAC00495F4552525F4F56455252554E004E5254
:102FBC00465F4552524F525F4452565F5457495FD9
:102FCC004552525F414E41434B004E52465F455273
:102FDC00524F525F4452565F5457495F4552525FAD
:102FEC00444E41434B004E52465F4552524F525F46
:102FFC00424C455F495053505F52585F504B545FA1
:10300C005452554E4341544544004E52465F45522E
:10301C00524F525F424C455F495053505F434841B9
:10302C004E4E454C5F414C52454144595F455849C1
:10303C00535453004E52465F4552524F525F424CCE
:10304C00455F495053505F4C494E4B5F4449534385
:10305C004F4E4E4543544544004E52465F455252E6
:10306C004F525F424C455F495053505F504545525B
:10307C005F52454A454354454400556E6B6E6F771D
:10308C006E206572726F7220636F646500000000C1
:10309C0000000000F52C000001000000012D0000D4
:1030AC00020000001F2D000003000000402D000056
:1030BC0004000000532D000005000000642D0000EA
:1030CC0006000000782D000007000000902D000085
:1030DC0008000000A82D000009000000C02D000011
:1030EC000A000000D92D00000B000000F12D00009B
:1030FC000C000000082E00000D0000001C2E00002B
:10310C000E0000002E2E00000F0000003D2E0000CF
:10311C0010000000512E000011000000682E00006D
:10312C0080000000772E000081000000982E000027
:10313C0082000000B42E000083000000D02E00009E
:10314C0084000000EE2E0000850000000F2F000010
:10315C0086000000342F0000900000004B2F000070
:10316C0091000000692F000092000000872F0000E2
:10317C00008200009C2F000001820000BA2F00008A
:10318C0002820000D62F000000840000F22F000005
:10319C000184000016300000028400004030000062
:1031AC000384000065300000505049005052530019
:1031BC0053414144430054494D45520055415254EA
:1031CC00005541525445004150505F4552524F52A8
:1031DC005F434845434B203A202564004170706C96
:1031EC0069636174696F6E20737461727465642EA7
:1031FC000053616D706C652076616C75652052654D
:10320C0061643A2025640000000000020000030005
:10321C00010006000338FDD870475465726D696E65
:10322C00616C00525454005345474745520000000E
:10323C00010100000001010000000000430000003B
:10324C00504F5349580000002020202020202020DF
:10325C0020682828282820202020202020202020FA
:10326C00202020202020202048101010101010109A
:10327C0010101010101010108484848484848484A2
:10328C0084841010101010101081818181818101B3
:10329C000101010101010101010101010101010112
:1032AC0001010110101010101082828282828202A1
:1032BC0002020202020202020202020202020202E2
:1032CC000202021010101020000703200417020144
:1032DC000857104080000000483200004C330000BA
:1032EC006034000053756E004D6F6E0054756500B0
:1032FC005765640054687500467269005361740028
:10330C00000000004A616E00466562004D6172006B
:10331C00417072004D6179004A756E004A756C00FF
:10332C0041756700536570004F6374004E6F7600F3
:10333C004465630000000000414D00504D0000004A
:10334C00843400008034000080340000803400009D
:10335C008034000080340000803400008034000091
:10336C008034000080340000FFFFFFFFFFFFFFFFF1
:10337C00FFFFFFFFFFFF0000C0330000F032000032
:10338C00FC3300001033000044330000A433000071
:10339C0054340000B0330000256D2F25642F25799F
:1033AC000000000025612025622025652025542081
:1033BC002559000053756E646179004D6F6E646120
:1033CC00790054756573646179005765646E657333
:1033DC00646179005468757273646179004672692E
:1033EC006461790053617475726461790000000046
:1033FC004A616E75617279004665627275617279A7
:10340C00004D6172636800417072696C004D6179A6
:10341C00004A756E65004A756C7900417567757365
:10342C00740053657074656D626572004F63746FE0
:10343C00626572004E6F76656D62657200446563FD
:10344C00656D62657200000025483A254D3A25539A
:10345C0000000000F92800001529000021290000B7
:10346C002D29000049290000552900006129000080
:0A347C006F290000000000002E0080
:103488000000000000200040000000000020004074
:103498000000000000000000FF0000000000000025
:1034A800FF0000000090D003E4320000E432000086
:0C34B800E4320000E4320000E4320000C6
:040000030000037581
:00000001FF
